100000000010000100000397000003970008030527777654ARITES S.R.L.                 000000000019965000000000000000000000000016500000000000003465000000000000000000000000000000000000000000000000000000000000000000000000000000000000000000200809112008091120080921      00000000000000000000000000000000
100000000010000100000398000003980008030693531108ASEKAMEX S.A.                 000000000005264000000000000000000000000004350000000000000914000000000000000000000000000000000000000000000000000000000000000000000000000000000000000000200809112008091120080921      00000000000000000000000000000000
100000000020000100000351000003510008020083828855ERNESTO OSCAR SCHAFER         000000000007986000000000000000000000000006600000000000001386000000000000000000000000000000000000000000000000000000000000000000000000000000000000000000200809112008091120080921      00000000000000000000000000000000
100000000020000100000352000003520008030693531108ASEKAMEX S.A.                 000000000039930000000000000000000000000033000000000000006930000000000000000000000000000000000000000000000000000000000000000000000000000000000000000000200809112008091120080921      00000000000000000000000000000000
100000000030000100000399000003990008020083828855ERNESTO OSCAR SCHAFER         000000000008470000000000000000000000000007000000000000001470000000000000000000000000000000000000000000000000000000000000000000000000000000000000000000200809112008091120080921      00000000000000000000000000000000
2200809             00000005                                                  000000008243115000000000000000000000006812450000000001430665000000000000000000000000000000000000000000000000000000000000000000000000000000000000000000                                                             *
