50000000016URUGUAY - Persona Física                                                                                                                                                                                                                                 
50000000024PARAGUAY - Persona Física                                                                                                                                                                                                                                
50000000032CHILE - Persona Física                                                                                                                                                                                                                                   
50000000040BOLIVIA - Persona Física                                                                                                                                                                                                                                 
50000000059BRASIL - Persona Física                                                                                                                                                                                                                                  
50000001012BURKINA FASO - Persona Física                                                                                                                                                                                                                            
50000001020ARGELIA - Persona Física                                                                                                                                                                                                                                 
50000001039BOTSWANA - Persona Física                                                                                                                                                                                                                                
50000001047BURUNDI - Persona Física                                                                                                                                                                                                                                 
50000001055CAMERUN - Persona Física                                                                                                                                                                                                                                 
50000001071CENTRO AFRICANO, REP. - Persona Física                                                                                                                                                                                                                   
50000001101COSTA DE MARFIL - Persona Física                                                                                                                                                                                                                         
50000001136EGIPTO - Persona Física                                                                                                                                                                                                                                  
50000001144ETIOPIA - Persona Física                                                                                                                                                                                                                                 
50000001152GABON - Persona Física                                                                                                                                                                                                                                   
50000001160GAMBIA - Persona Física                                                                                                                                                                                                                                  
50000001179GHANA - Persona Física                                                                                                                                                                                                                                   
50000001187GUINEA - Persona Física                                                                                                                                                                                                                                  
50000001195GUINEA ECUATORIAL - Persona Física                                                                                                                                                                                                                       
50000001209KENIA - Persona Física                                                                                                                                                                                                                                   
50000001217LESOTHO - Persona Física                                                                                                                                                                                                                                 
50000001225REPUBLICA DE LIBERIA (Estado independiente) - Persona Física                                                                                                                                                                                             
50000001233LIBIA - Persona Física                                                                                                                                                                                                                                   
50000001241MADAGASCAR - Persona Física                                                                                                                                                                                                                              
50000001276MARRUECOS - Persona Física                                                                                                                                                                                                                               
50000001284REPUBLICA DE MAURICIO - Persona Física                                                                                                                                                                                                                   
50000001292MAURITANIA - Persona Física                                                                                                                                                                                                                              
50000001306NIGER - Persona Física                                                                                                                                                                                                                                   
50000001314NIGERIA - Persona Física                                                                                                                                                                                                                                 
50000001322ZIMBABWE - Persona Física                                                                                                                                                                                                                                
50000001330RUANDA - Persona Física                                                                                                                                                                                                                                  
50000001349SENEGAL - Persona Física                                                                                                                                                                                                                                 
50000001357SIERRA LEONA - Persona Física                                                                                                                                                                                                                            
50000001365SOMALIA - Persona Física                                                                                                                                                                                                                                 
50000001373REINO DE SWAZILANDIA (Estado independiente) - Persona Física                                                                                                                                                                                             
50000001381SUDAN - Persona Física                                                                                                                                                                                                                                   
50000001403TOGO - Persona Física                                                                                                                                                                                                                                    
50000001411REPUBLICA TUNECINA - Persona Física                                                                                                                                                                                                                      
50000001446ZAMBIA - Persona Física                                                                                                                                                                                                                                  
50000001454POS.BRITANICA (AFRICA) - Persona Física                                                                                                                                                                                                                  
50000001462POS.ESPAÑOLA (AFRICA) - Persona Física                                                                                                                                                                                                                  
50000001470POS.FRANCESA (AFRICA) - Persona Física                                                                                                                                                                                                                   
50000001489POS.PORTUGUESA (AFRICA) - Persona Física                                                                                                                                                                                                                 
50000001497REPUBLICA DE ANGOLA - Persona Física                                                                                                                                                                                                                     
50000001500REPUBLICA DE CABO VERDE (Estado independiente) - Persona Física                                                                                                                                                                                          
50000001519MOZAMBIQUE - Persona Física                                                                                                                                                                                                                              
50000001527CONGO REP.POPULAR - Persona Física                                                                                                                                                                                                                       
50000001535CHAD - Persona Física                                                                                                                                                                                                                                    
50000001543MALAWI - Persona Física                                                                                                                                                                                                                                  
50000001551TANZANIA - Persona Física                                                                                                                                                                                                                                
50000001586COSTA RICA - Persona Física                                                                                                                                                                                                                              
50000001616ZAIRE - Persona Física                                                                                                                                                                                                                                   
50000001624BENIN - Persona Física                                                                                                                                                                                                                                   
50000001632MALI - Persona Física                                                                                                                                                                                                                                    
50000001705UGANDA - Persona Física                                                                                                                                                                                                                                  
50000001713SUDAFRICA, REP. DE - Persona Física                                                                                                                                                                                                                      
50000001810REPUBLICA DE SEYCHELLES (Estado independiente) - Persona Física                                                                                                                                                                                          
50000001829SANTO TOME Y PRINCIPE - Persona Física                                                                                                                                                                                                                   
50000001837NAMIBIA - Persona Física                                                                                                                                                                                                                                 
50000001845GUINEA BISSAU - Persona Física                                                                                                                                                                                                                           
50000001853ERITREA - Persona Física                                                                                                                                                                                                                                 
50000001861REPUBLICA DE DJIBUTI (Estado independiente) - Persona Física                                                                                                                                                                                             
50000001896COMORAS - Persona Física                                                                                                                                                                                                                                 
50000001985INDETERMINADO (AFRICA) - Persona Física                                                                                                                                                                                                                  
50000002019BARBADOS (Estado independiente) - Persona Física                                                                                                                                                                                                         
50000002043CANADA - Persona Física                                                                                                                                                                                                                                  
50000002051COLOMBIA - Persona Física                                                                                                                                                                                                                                
50000002094DOMINICANA, REPUBLICA - Persona Física                                                                                                                                                                                                                   
50000002116EL SALVADOR - Persona Física                                                                                                                                                                                                                             
50000002124ESTADOS UNIDOS - Persona Física                                                                                                                                                                                                                          
50000002132GUATEMALA - Persona Física                                                                                                                                                                                                                               
50000002140REPUBLICA COOPERATIVA DE GUYANA (Estado independiente) - Persona Física                                                                                                                                                                                  
50000002159HAITI - Persona Física                                                                                                                                                                                                                                   
50000002167HONDURAS - Persona Física                                                                                                                                                                                                                                
50000002175JAMAICA - Persona Física                                                                                                                                                                                                                                 
50000002183MEXICO - Persona Física                                                                                                                                                                                                                                  
50000002191NICARAGUA - Persona Física                                                                                                                                                                                                                               
50000002205REPUBLICA DE PANAMA (Estado independiente) - Persona Física                                                                                                                                                                                              
50000002213ESTADO LIBRE ASOCIADO DE PUERTO RICO (Estado asoc. a EEUU) - Persona Física                                                                                                                                                                              
50000002221PERU - Persona Física                                                                                                                                                                                                                                    
50000002256ANTIGUA Y BARBUDA (Estado independiente) - Persona Física                                                                                                                                                                                                
50000002264VENEZUELA - Persona Física                                                                                                                                                                                                                               
50000002272POS.BRITANICA (AMERICA) - Persona Física                                                                                                                                                                                                                 
50000002280POS.DANESA (AMERICA) - Persona Física                                                                                                                                                                                                                    
50000002299POS.FRANCESA (AMERICA) - Persona Física                                                                                                                                                                                                                  
50000002302POS.PAISES BAJOS (AMERICA) - Persona Física                                                                                                                                                                                                              
50000002310POS.E.E.U.U. (AMERICA) - Persona Física                                                                                                                                                                                                                  
50000002329SURINAME - Persona Física                                                                                                                                                                                                                                
50000002337EL COMMONWEALTH DE DOMINICA (Estado Asociado) - Persona Física                                                                                                                                                                                           
50000002345SANTA LUCIA - Persona Física                                                                                                                                                                                                                             
50000002353SAN VICENTE Y LAS GRANADINAS (Estado independiente) - Persona Física                                                                                                                                                                                     
50000002361BELICE (Estado independiente) - Persona Física                                                                                                                                                                                                           
50000002396CUBA - Persona Física                                                                                                                                                                                                                                    
50000002426ECUADOR - Persona Física                                                                                                                                                                                                                                 
50000002434REPUBLICA DE TRINIDAD Y TOBAGO - Persona Física                                                                                                                                                                                                          
50000002825BUTAN - Persona Física                                                                                                                                                                                                                                   
50000002841MYANMAR (EX BIRMANIA) - Persona Física                                                                                                                                                                                                                   
50000002876ISRAEL - Persona Física                                                                                                                                                                                                                                  
50000002882ESTADO ASOCIADO DE GRANADA (Estado independiente) - Persona Física                                                                                                                                                                                       
50000002892FEDERACION DE SAN CRISTOBAL (Islas Saint Kitts and Nevis) - Persona Física                                                                                                                                                                               
50000002906COMUNIDAD DE LAS BAHAMAS (Estado independiente) - Persona Física                                                                                                                                                                                         
50000002914TAILANDIA - Persona Física                                                                                                                                                                                                                               
50000002922INDETERMINADO (AMERICA) - Persona Física                                                                                                                                                                                                                 
50000002930IRAN - Persona Física                                                                                                                                                                                                                                    
50000002981ESTADO DE QATAR (Estado independiente) - Persona Física                                                                                                                                                                                                  
50000003007REINO HACHEMITA DE JORDANIA - Persona Física                                                                                                                                                                                                             
50000003015AFGANISTAN - Persona Física                                                                                                                                                                                                                              
50000003023ARABIA SAUDITA - Persona Física                                                                                                                                                                                                                          
50000003031ESTADO DE BAHREIN (Estado independiente) - Persona Física                                                                                                                                                                                                
50000003066CAMBOYA (EX KAMPUCHEA) - Persona Física                                                                                                                                                                                                                  
50000003074REPUBLICA DEMOCRATICA SOCIALISTA DE SRI LANKA - Persona Física                                                                                                                                                                                           
50000003082COREA DEMOCRATICA  - Persona Física                                                                                                                                                                                                                      
50000003090COREA REPUBLICANA - Persona Física                                                                                                                                                                                                                       
50000003104CHINA REP.POPULAR - Persona Física                                                                                                                                                                                                                       
50000003112REPUBLICA DE CHIPRE (Estado independiente) - Persona Física                                                                                                                                                                                              
50000003120FILIPINAS - Persona Física                                                                                                                                                                                                                               
50000003139TAIWAN - Persona Física                                                                                                                                                                                                                                  
50000003147GAZA - Persona Física                                                                                                                                                                                                                                    
50000003155INDIA - Persona Física                                                                                                                                                                                                                                   
50000003163INDONESIA - Persona Física                                                                                                                                                                                                                               
50000003171IRAK - Persona Física                                                                                                                                                                                                                                    
50000003201JAPON - Persona Física                                                                                                                                                                                                                                   
50000003236ESTADO DE KUWAIT (Estado independiente) - Persona Física                                                                                                                                                                                                 
50000003244LAOS - Persona Física                                                                                                                                                                                                                                    
50000003252LIBANO - Persona Física                                                                                                                                                                                                                                  
50000003260MALASIA - Persona Física                                                                                                                                                                                                                                 
50000003279REPUBLICA DE MALDIVAS (Estado independiente) - Persona Física                                                                                                                                                                                            
50000003287SULTANATO DE OMAN - Persona Física                                                                                                                                                                                                                       
50000003295MONGOLIA - Persona Física                                                                                                                                                                                                                                
50000003309NEPAL - Persona Física                                                                                                                                                                                                                                   
50000003317EMIRATOS ARABES UNIDOS (Estado independiente) - Persona Física                                                                                                                                                                                           
50000003325PAKISTAN - Persona Física                                                                                                                                                                                                                                
50000003333SINGAPUR - Persona Física                                                                                                                                                                                                                                
50000003341SIRIA - Persona Física                                                                                                                                                                                                                                   
50000003376VIETNAM - Persona Física                                                                                                                                                                                                                                 
50000003392REPUBLICA DEL YEMEN - Persona Física                                                                                                                                                                                                                     
50000003414POS.BRITANICA (HONG KONG) - Persona Física                                                                                                                                                                                                               
50000003422POS.JAPONESA (ASIA) - Persona Física                                                                                                                                                                                                                     
50000003449MACAO - Persona Física                                                                                                                                                                                                                                   
50000003457BANGLADESH - Persona Física                                                                                                                                                                                                                              
50000003503TURQUIA - Persona Física                                                                                                                                                                                                                                 
50000003546ITALIA - Persona Física                                                                                                                                                                                                                                  
50000003554TURKMENISTAN - Persona Física                                                                                                                                                                                                                            
50000003562UZBEKISTAN - Persona Física                                                                                                                                                                                                                              
50000003570TERRITORIOS AUTONOMOS PALESTINOS - Persona Física                                                                                                                                                                                                        
50000003813ISLANDIA - Persona Física                                                                                                                                                                                                                                
50000003880GEORGIA - Persona Física                                                                                                                                                                                                                                 
50000003899TAYIKISTAN - Persona Física                                                                                                                                                                                                                              
50000003902AZERBAIDZHAN - Persona Física                                                                                                                                                                                                                            
50000003910BRUNEI DARUSSALAM (Estado independiente) - Persona Física                                                                                                                                                                                                
50000003929KAZAJSTAN - Persona Física                                                                                                                                                                                                                               
50000003937KIRGUISTAN - Persona Física                                                                                                                                                                                                                              
50000003961INDETERMINADO (ASIA) - Persona Física                                                                                                                                                                                                                    
50000004011REPUBLICA DE ALBANIA - Persona Física                                                                                                                                                                                                                    
50000004046PRINCIPADO DEL VALLE DE ANDORRA - Persona Física                                                                                                                                                                                                         
50000004054AUSTRIA - Persona Física                                                                                                                                                                                                                                 
50000004062BELGICA - Persona Física                                                                                                                                                                                                                                 
50000004070BULGARIA - Persona Física                                                                                                                                                                                                                                
50000004097DINAMARCA - Persona Física                                                                                                                                                                                                                               
50000004100ESPAÑA - Persona Física                                                                                                                                                                                                                                 
50000004119FINLANDIA - Persona Física                                                                                                                                                                                                                               
50000004127FRANCIA - Persona Física                                                                                                                                                                                                                                 
50000004135GRECIA - Persona Física                                                                                                                                                                                                                                  
50000004143HUNGRIA - Persona Física                                                                                                                                                                                                                                 
50000004151IRLANDA (EIRE) - Persona Física                                                                                                                                                                                                                          
50000004186PRINCIPADO DE LIECHTENSTEIN (Estado independiente) - Persona Física                                                                                                                                                                                      
50000004194GRAN DUCADO DE LUXEMBURGO - Persona Física                                                                                                                                                                                                               
50000004216PRINCIPADO DE MONACO - Persona Física                                                                                                                                                                                                                    
50000004224NORUEGA - Persona Física                                                                                                                                                                                                                                 
50000004232PAISES BAJOS - Persona Física                                                                                                                                                                                                                            
50000004240POLONIA - Persona Física                                                                                                                                                                                                                                 
50000004259PORTUGAL - Persona Física                                                                                                                                                                                                                                
50000004267REINO UNIDO - Persona Física                                                                                                                                                                                                                             
50000004275RUMANIA - Persona Física                                                                                                                                                                                                                                 
50000004283SERENISIMA REPUBLICA DE SAN MARINO (Estado independiente) - Persona Física                                                                                                                                                                               
50000004291SUECIA - Persona Física                                                                                                                                                                                                                                  
50000004305SUIZA - Persona Física                                                                                                                                                                                                                                   
50000004313SANTA SEDE (VATICANO) - Persona Física                                                                                                                                                                                                                   
50000004321YUGOSLAVIA - Persona Física                                                                                                                                                                                                                              
50000004364REPUBLICA DE MALTA (Estado independiente) - Persona Física                                                                                                                                                                                               
50000004380ALEMANIA, REP. FED. - Persona Física                                                                                                                                                                                                                     
50000004399BIELORUSIA - Persona Física                                                                                                                                                                                                                              
50000004402ESTONIA - Persona Física                                                                                                                                                                                                                                 
50000004410LETONIA - Persona Física                                                                                                                                                                                                                                 
50000004429LITUANIA - Persona Física                                                                                                                                                                                                                                
50000004437MOLDOVA - Persona Física                                                                                                                                                                                                                                 
50000004461BOSNIA HERZEGOVINA - Persona Física                                                                                                                                                                                                                      
50000004496ESLOVENIA - Persona Física                                                                                                                                                                                                                               
50000004909MACEDONIA - Persona Física                                                                                                                                                                                                                               
50000004917POS.BRITANICA (EUROPA) - Persona Física                                                                                                                                                                                                                  
50000004984INDETERMINADO (EUROPA) - Persona Física                                                                                                                                                                                                                  
50000004992AUSTRALIA - Persona Física                                                                                                                                                                                                                               
50000005034REPUBLICA DE NAURU (Estado independiente) - Persona Física                                                                                                                                                                                               
50000005042NUEVA ZELANDA - Persona Física                                                                                                                                                                                                                           
50000005050REPUBLICA DE VANUATU - Persona Física                                                                                                                                                                                                                    
50000005069SAMOA OCCIDENTAL - Persona Física                                                                                                                                                                                                                        
50000005077POS.AUSTRALIANA (OCEANIA) - Persona Física                                                                                                                                                                                                               
50000005085POS.BRITANICA (OCEANIA) - Persona Física                                                                                                                                                                                                                 
50000005093POS.FRANCESA (OCEANIA) - Persona Física                                                                                                                                                                                                                  
50000005107POS.NEOCELANDESA (OCEANIA) - Persona Física                                                                                                                                                                                                              
50000005115POS.E.E.U.U. (OCEANIA) - Persona Física                                                                                                                                                                                                                  
50000005123FIJI, ISLAS - Persona Física                                                                                                                                                                                                                             
50000005131PAPUA, ISLAS - Persona Física                                                                                                                                                                                                                            
50000005166KIRIBATI - Persona Física                                                                                                                                                                                                                                
50000005174TUVALU - Persona Física                                                                                                                                                                                                                                  
50000005182ISLAS SALOMON - Persona Física                                                                                                                                                                                                                           
50000005190REINO DE TONGA (Estado independiente) - Persona Física                                                                                                                                                                                                   
50000005204REPUBLICA DE LAS ISLAS MARSHALL (Estado independiente) - Persona Física                                                                                                                                                                                  
50000005212ISLAS MARIANAS - Persona Física                                                                                                                                                                                                                          
50000005905MICRONESIA ESTADOS FED. - Persona Física                                                                                                                                                                                                                 
50000005913PALAU - Persona Física                                                                                                                                                                                                                                   
50000005980INDETERMINADO (OCEANIA) - Persona Física                                                                                                                                                                                                                 
50000006014RUSA, FEDERACION - Persona Física                                                                                                                                                                                                                        
50000006022ARMENIA - Persona Física                                                                                                                                                                                                                                 
50000006030CROACIA - Persona Física                                                                                                                                                                                                                                 
50000006049UCRANIA - Persona Física                                                                                                                                                                                                                                 
50000006057CHECA, REPUBLICA - Persona Física                                                                                                                                                                                                                        
50000006065ESLOVACA, REPUBLICA - Persona Física                                                                                                                                                                                                                     
50000006529ANGUILA (Territorio no autónomo del Reino Unido) - Persona Física                                                                                                                                                                                       
50000006537ARUBA (Territorio de Países Bajos) - Persona Física                                                                                                                                                                                                     
50000006545ISLAS DE COOK (Territorio autónomo asociado a Nueva Zelanda) - Persona Física                                                                                                                                                                           
50000006553PATAU - Persona Física                                                                                                                                                                                                                                   
50000006561POLINESIA FRANCESA (Territorio de Ultramar de Francia) - Persona Física                                                                                                                                                                                  
50000006596ANTILLAS HOLANDESAS (Territorio de Países Bajos) - Persona Física                                                                                                                                                                                       
50000006626ASCENCION - Persona Física                                                                                                                                                                                                                               
50000006634BERMUDAS (Territorio no autónomo del Reino Unido) - Persona Física                                                                                                                                                                                      
50000006642CAMPIONE D@ITALIA - Persona Física                                                                                                                                                                                                                       
50000006650COLONIA DE GIBRALTAR - Persona Física                                                                                                                                                                                                                    
50000006669GROENLANDIA - Persona Física                                                                                                                                                                                                                             
50000006677GUAM (Territorio no autónomo de los EEUU) - Persona Física                                                                                                                                                                                              
50000006685HONK KONG (Territorio de China) - Persona Física                                                                                                                                                                                                         
50000006693ISLAS AZORES - Persona Física                                                                                                                                                                                                                            
50000006707ISLAS DEL CANAL:Guernesey,Jersey,Alderney,G.Stark,L.Sark,etc - Persona Física                                                                                                                                                                            
50000006715ISLAS CAIMAN (Territorio no autónomo del Reino Unido) - Persona Física                                                                                                                                                                                  
50000006723ISLA CHRISTMAS - Persona Física                                                                                                                                                                                                                          
50000006731ISLA DE COCOS O KEELING - Persona Física                                                                                                                                                                                                                 
50000006766ISLA DE MAN (Territorio del Reino Unido) - Persona Física                                                                                                                                                                                                
50000006774ISLA DE NORFOLK - Persona Física                                                                                                                                                                                                                         
50000006782ISLAS TURKAS Y CAICOS (Territorio no autónomo del R. Unido) - Persona Física                                                                                                                                                                            
50000006790ISLAS PACIFICO - Persona Física                                                                                                                                                                                                                          
50000006804ISLA DE SAN PEDRO Y MIGUELON - Persona Física                                                                                                                                                                                                            
50000006812ISLA QESHM - Persona Física                                                                                                                                                                                                                              
50000006820ISLAS VIRGENES BRITANICAS(Territorio no autónomo de R.UNIDO) - Persona Física                                                                                                                                                                           
50000006839ISLAS VIRGENES DE ESTADOS UNIDOS DE AMERICA - Persona Física                                                                                                                                                                                             
50000006847LABUAN - Persona Física                                                                                                                                                                                                                                  
50000006855MADEIRA (Territorio de Portugal) - Persona Física                                                                                                                                                                                                        
50000006863MONTSERRAT (Territorio no autónomo del Reino Unido) - Persona Física                                                                                                                                                                                    
50000006871NIUE - Persona Física                                                                                                                                                                                                                                    
50000006901PITCAIRN - Persona Física                                                                                                                                                                                                                                
50000006936REGIMEN APLICABLE A LAS SA FINANCIERAS(ley 11.073 de la ROU) - Persona Física                                                                                                                                                                            
50000006944SANTA ELENA - Persona Física                                                                                                                                                                                                                             
50000006952SAMOA AMERICANA (Territorio no autónomo de los EEUU) - Persona Física                                                                                                                                                                                   
50000006960ARCHIPIELAGO DE SVBALBARD - Persona Física                                                                                                                                                                                                               
50000006979TRISTAN DA CUNHA - Persona Física                                                                                                                                                                                                                        
50000006987TRIESTE (Italia) - Persona Física                                                                                                                                                                                                                        
50000006995TOKELAU - Persona Física                                                                                                                                                                                                                                 
50000007002ZONA LIBRE DE OSTRAVA (ciudad de la antigua Checoeslovaquia) - Persona Física                                                                                                                                                                            
50000009986PARA PERSONAS FISICAS DE INDETERMINADO (CONTINENTE) - Persona Física                                                                                                                                                                                     
50000009994PARA PERSONAS FISICAS DE OTROS PAISES - Persona Física                                                                                                                                                                                                   
51600000016URUGUAY - Otro tipo de Entidad                                                                                                                                                                                                                            
51600000024PARAGUAY - Otro tipo de Entidad                                                                                                                                                                                                                           
51600000032CHILE - Otro tipo de Entidad                                                                                                                                                                                                                              
51600000040BOLIVIA - Otro tipo de Entidad                                                                                                                                                                                                                            
51600000059BRASIL - Otro tipo de Entidad                                                                                                                                                                                                                             
51600001012BURKINA FASO - Otro tipo de Entidad                                                                                                                                                                                                                       
51600001020ARGELIA - Otro tipo de Entidad                                                                                                                                                                                                                            
51600001039BOTSWANA - Otro tipo de Entidad                                                                                                                                                                                                                           
51600001047BURUNDI - Otro tipo de Entidad                                                                                                                                                                                                                            
51600001055CAMERUN - Otro tipo de Entidad                                                                                                                                                                                                                            
51600001071CENTRO AFRICANO, REP. - Otro tipo de Entidad                                                                                                                                                                                                              
51600001101COSTA DE MARFIL - Otro tipo de Entidad                                                                                                                                                                                                                    
51600001136EGIPTO - Otro tipo de Entidad                                                                                                                                                                                                                             
51600001144ETIOPIA - Otro tipo de Entidad                                                                                                                                                                                                                            
51600001152GABON - Otro tipo de Entidad                                                                                                                                                                                                                              
51600001160GAMBIA - Otro tipo de Entidad                                                                                                                                                                                                                             
51600001179GHANA - Otro tipo de Entidad                                                                                                                                                                                                                              
51600001187GUINEA - Otro tipo de Entidad                                                                                                                                                                                                                             
51600001195GUINEA ECUATORIAL - Otro tipo de Entidad                                                                                                                                                                                                                  
51600001209KENIA - Otro tipo de Entidad                                                                                                                                                                                                                              
51600001217LESOTHO - Otro tipo de Entidad                                                                                                                                                                                                                            
51600001225REPUBLICA DE LIBERIA (Estado independiente) - Otro tipo de Entidad                                                                                                                                                                                        
51600001233LIBIA - Otro tipo de Entidad                                                                                                                                                                                                                              
51600001241MADAGASCAR - Otro tipo de Entidad                                                                                                                                                                                                                         
51600001276MARRUECOS - Otro tipo de Entidad                                                                                                                                                                                                                          
51600001284REPUBLICA DE MAURICIO - Otro tipo de Entidad                                                                                                                                                                                                              
51600001292MAURITANIA - Otro tipo de Entidad                                                                                                                                                                                                                         
51600001306NIGER - Otro tipo de Entidad                                                                                                                                                                                                                              
51600001314NIGERIA - Otro tipo de Entidad                                                                                                                                                                                                                            
51600001322ZIMBABWE - Otro tipo de Entidad                                                                                                                                                                                                                           
51600001330RUANDA - Otro tipo de Entidad                                                                                                                                                                                                                             
51600001349SENEGAL - Otro tipo de Entidad                                                                                                                                                                                                                            
51600001357SIERRA LEONA - Otro tipo de Entidad                                                                                                                                                                                                                       
51600001365SOMALIA - Otro tipo de Entidad                                                                                                                                                                                                                            
51600001373REINO DE SWAZILANDIA (Estado independiente) - Otro tipo de Entidad                                                                                                                                                                                        
51600001381SUDAN - Otro tipo de Entidad                                                                                                                                                                                                                              
51600001403TOGO - Otro tipo de Entidad                                                                                                                                                                                                                               
51600001411REPUBLICA TUNECINA - Otro tipo de Entidad                                                                                                                                                                                                                 
51600001446ZAMBIA - Otro tipo de Entidad                                                                                                                                                                                                                             
51600001454POS.BRITANICA (AFRICA) - Otro tipo de Entidad                                                                                                                                                                                                             
51600001462POS.ESPAÑOLA (AFRICA) - Otro tipo de Entidad                                                                                                                                                                                                             
51600001470POS.FRANCESA (AFRICA) - Otro tipo de Entidad                                                                                                                                                                                                              
51600001489POS.PORTUGUESA (AFRICA) - Otro tipo de Entidad                                                                                                                                                                                                            
51600001497REPUBLICA DE ANGOLA - Otro tipo de Entidad                                                                                                                                                                                                                
51600001500REPUBLICA DE CABO VERDE (Estado independiente) - Otro tipo de Entidad                                                                                                                                                                                     
51600001519MOZAMBIQUE - Otro tipo de Entidad                                                                                                                                                                                                                         
51600001527CONGO REP.POPULAR - Otro tipo de Entidad                                                                                                                                                                                                                  
51600001535CHAD - Otro tipo de Entidad                                                                                                                                                                                                                               
51600001543MALAWI - Otro tipo de Entidad                                                                                                                                                                                                                             
51600001551TANZANIA - Otro tipo de Entidad                                                                                                                                                                                                                           
51600001586COSTA RICA - Otro tipo de Entidad                                                                                                                                                                                                                         
51600001616ZAIRE - Otro tipo de Entidad                                                                                                                                                                                                                              
51600001624BENIN - Otro tipo de Entidad                                                                                                                                                                                                                              
51600001632MALI - Otro tipo de Entidad                                                                                                                                                                                                                               
51600001705UGANDA - Otro tipo de Entidad                                                                                                                                                                                                                             
51600001713SUDAFRICA, REP. DE - Otro tipo de Entidad                                                                                                                                                                                                                 
51600001810REPUBLICA DE SEYCHELLES (Estado independiente) - Otro tipo de Entidad                                                                                                                                                                                     
51600001829SANTO TOME Y PRINCIPE - Otro tipo de Entidad                                                                                                                                                                                                              
51600001837NAMIBIA - Otro tipo de Entidad                                                                                                                                                                                                                            
51600001845GUINEA BISSAU - Otro tipo de Entidad                                                                                                                                                                                                                      
51600001853ERITREA - Otro tipo de Entidad                                                                                                                                                                                                                            
51600001861REPUBLICA DE DJIBUTI (Estado independiente) - Otro tipo de Entidad                                                                                                                                                                                        
51600001896COMORAS - Otro tipo de Entidad                                                                                                                                                                                                                            
51600001985INDETERMINADO (AFRICA) - Otro tipo de Entidad                                                                                                                                                                                                             
51600002019BARBADOS (Estado independiente) - Otro tipo de Entidad                                                                                                                                                                                                    
51600002043CANADA - Otro tipo de Entidad                                                                                                                                                                                                                             
51600002051COLOMBIA - Otro tipo de Entidad                                                                                                                                                                                                                           
51600002094DOMINICANA, REPUBLICA - Otro tipo de Entidad                                                                                                                                                                                                              
51600002116EL SALVADOR - Otro tipo de Entidad                                                                                                                                                                                                                        
51600002124ESTADOS UNIDOS - Otro tipo de Entidad                                                                                                                                                                                                                     
51600002132GUATEMALA - Otro tipo de Entidad                                                                                                                                                                                                                          
51600002140REPUBLICA COOPERATIVA DE GUYANA (Estado independiente) - Otro tipo de Entidad                                                                                                                                                                             
51600002159HAITI - Otro tipo de Entidad                                                                                                                                                                                                                              
51600002167HONDURAS - Otro tipo de Entidad                                                                                                                                                                                                                           
51600002175JAMAICA - Otro tipo de Entidad                                                                                                                                                                                                                            
51600002183MEXICO - Otro tipo de Entidad                                                                                                                                                                                                                             
51600002191NICARAGUA - Otro tipo de Entidad                                                                                                                                                                                                                          
51600002205REPUBLICA DE PANAMA (Estado independiente) - Otro tipo de Entidad                                                                                                                                                                                         
51600002213ESTADO LIBRE ASOCIADO DE PUERTO RICO (Estado asoc. a EEUU) - Otro tipo de Entidad                                                                                                                                                                         
51600002221PERU - Otro tipo de Entidad                                                                                                                                                                                                                               
51600002256ANTIGUA Y BARBUDA (Estado independiente) - Otro tipo de Entidad                                                                                                                                                                                           
51600002264VENEZUELA - Otro tipo de Entidad                                                                                                                                                                                                                          
51600002272POS.BRITANICA (AMERICA) - Otro tipo de Entidad                                                                                                                                                                                                            
51600002280POS.DANESA (AMERICA) - Otro tipo de Entidad                                                                                                                                                                                                               
51600002299POS.FRANCESA (AMERICA) - Otro tipo de Entidad                                                                                                                                                                                                             
51600002302POS.PAISES BAJOS (AMERICA) - Otro tipo de Entidad                                                                                                                                                                                                         
51600002310POS.E.E.U.U. (AMERICA) - Otro tipo de Entidad                                                                                                                                                                                                             
51600002329SURINAME - Otro tipo de Entidad                                                                                                                                                                                                                           
51600002337EL COMMONWEALTH DE DOMINICA (Estado Asociado) - Otro tipo de Entidad                                                                                                                                                                                      
51600002345SANTA LUCIA - Otro tipo de Entidad                                                                                                                                                                                                                        
51600002353SAN VICENTE Y LAS GRANADINAS (Estado independiente) - Otro tipo de Entidad                                                                                                                                                                                
51600002361BELICE (Estado independiente) - Otro tipo de Entidad                                                                                                                                                                                                      
51600002396CUBA - Otro tipo de Entidad                                                                                                                                                                                                                               
51600002426ECUADOR - Otro tipo de Entidad                                                                                                                                                                                                                            
51600002434REPUBLICA DE TRINIDAD Y TOBAGO - Otro tipo de Entidad                                                                                                                                                                                                     
51600002825BUTAN - Otro tipo de Entidad                                                                                                                                                                                                                              
51600002841MYANMAR (EX BIRMANIA) - Otro tipo de Entidad                                                                                                                                                                                                              
51600002876ISRAEL - Otro tipo de Entidad                                                                                                                                                                                                                             
51600002884ESTADO ASOCIADO DE GRANADA (Estado independiente) - Otro tipo de Entidad                                                                                                                                                                                  
51600002892FEDERACION DE SAN CRISTOBAL (Islas Saint Kitts and Nevis) - Otro tipo de Entidad                                                                                                                                                                          
51600002906COMUNIDAD DE LAS BAHAMAS (Estado independiente) - Otro tipo de Entidad                                                                                                                                                                                    
51600002914TAILANDIA - Otro tipo de Entidad                                                                                                                                                                                                                          
51600002922INDETERMINADO (AMERICA) - Otro tipo de Entidad                                                                                                                                                                                                            
51600002930IRAN - Otro tipo de Entidad                                                                                                                                                                                                                               
51600002981ESTADO DE QATAR (Estado independiente) - Otro tipo de Entidad                                                                                                                                                                                             
51600003007REINO HACHEMITA DE JORDANIA - Otro tipo de Entidad                                                                                                                                                                                                        
51600003015AFGANISTAN - Otro tipo de Entidad                                                                                                                                                                                                                         
51600003023ARABIA SAUDITA - Otro tipo de Entidad                                                                                                                                                                                                                     
51600003031ESTADO DE BAHREIN (Estado independiente) - Otro tipo de Entidad                                                                                                                                                                                           
51600003066CAMBOYA (EX KAMPUCHEA) - Otro tipo de Entidad                                                                                                                                                                                                             
51600003074REPUBLICA DEMOCRATICA SOCIALISTA DE SRI LANKA - Otro tipo de Entidad                                                                                                                                                                                      
51600003082COREA DEMOCRATICA  - Otro tipo de Entidad                                                                                                                                                                                                                 
51600003090COREA REPUBLICANA - Otro tipo de Entidad                                                                                                                                                                                                                  
51600003104CHINA REP.POPULAR - Otro tipo de Entidad                                                                                                                                                                                                                  
51600003112REPUBLICA DE CHIPRE (Estado independiente) - Otro tipo de Entidad                                                                                                                                                                                         
51600003120FILIPINAS - Otro tipo de Entidad                                                                                                                                                                                                                          
51600003139TAIWAN - Otro tipo de Entidad                                                                                                                                                                                                                             
51600003147GAZA - Otro tipo de Entidad                                                                                                                                                                                                                               
51600003155INDIA - Otro tipo de Entidad                                                                                                                                                                                                                              
51600003163INDONESIA - Otro tipo de Entidad                                                                                                                                                                                                                          
51600003171IRAK - Otro tipo de Entidad                                                                                                                                                                                                                               
51600003201JAPON - Otro tipo de Entidad                                                                                                                                                                                                                              
51600003236ESTADO DE KUWAIT (Estado independiente) - Otro tipo de Entidad                                                                                                                                                                                            
