100000000010000100000395000003950008030527777654ARITES S.R.L.                 00000000001210000000000000000000000000001000000000000000210000000000000000000000000000000000000000000000000000000000000000000000000000000000000000000000000000000000001PES000000000000000000000000000000000000000000
100000000010000100000396000003960008020083828855ERNESTO OSCAR SCHAFER         00000000000726000000000000000000000000000600000000000000126000000000000000000000000000000000000000000000000000000000000000000000000000000000000000000000000000000000001PES000000000000000000000000000000000000000000
100000000020000100000350000003500008030693531108ASEKAMEX S.A.                 00000000000163400000000000000000000000000135000000000000028400000000000000000000000000000000000000000000000000000000000000000000000000000000000000000000000000000000001PES000000000000000000000000000000000000000000
100000000030000100000397000003970008020120823028BONIFACIO GABRIEL             00000000001633500000000000000000000000001350000000000000283500000000000000000000000000000000000000000000000000000000000000000000000000000000000000000000000000000000001PES000000000000000000000000000000000000000000
100000000030000100000398000003980008030527777654ARITES S.R.L.                 00000000000599000000000000000000000000000495000000000000104000000000000000000000000000000000000000000000000000000000000000000000000000000000000000000000000000000000001PES000000000000000000000000000000000000000000
2200809             00000005                                                  000000004375219000000000000000000000003615800000000000759419000000000000000000000000000000000000000000000000000000000000000000000000000000000000000000                                                             *
